S00C0000536166652E7372656399
S11300000C942A000C9447000C9447000C9447006D
S11300100C9447000C9447000C9447000C94470040
S11300200C9447000C9447000C9447000C94470030
S11300300C9447000C9447000C9447000C94470020
S11300400C9447000C9447000C9447000C94470010
S11300500C94470011241FBECFE5D8E0DEBFCDBF0E
S113006010E0A0E6B0E0E8E9FBE002C005900D92E4
S1130070AC3FB107D9F720E0ACEFB0E001C01D926E
S1130080AD3FB207E1F70E94C7010C94CA050C9476
S11300900000FF920F931F93CF93DF931F92CDB76E
S11300A0DEB764E670E0CE0101960E949803898170
S11300B0813009F46BC00E94EB0281E790E00E945A
S11300C0D80240E061E08EE790E00E946D032FEFDC
S11300D083ED90E3215080409040E1F700C00000A0
S11300E00E94EB0289E890E00E94D80267E081E078
S11300F00E94EF0200E017E0F12C27C08FEF8093FD
S1130100FC0004C00E94C2038093FC008091FC00A8
S11301108F3FC1F3412F61E00E9462032FEF82E51C
S113012097E0215080409040E1F700C00000412F4B
S113013061E08AE20E9462031F5F6F2D70E080918C
S1130140FC000E947A03F3940F5F0430B8F22FEF9F
S113015083ED90E3215080409040E1F700C000001F
S11301600E94EB0286E990E00E94D8022FEF83ED13
S113017090E3215080409040E1F700C000000E94CD
S1130180EB0264E670E081E00E947A030F90DF9155
S1130190CF911F910F91FF900895CF92DF92EF922C
S11301A0FF920F931F93CF93DF9300D0CDB7DEB7A9
S11301B06C01E62E10E025E02A83DAC00E94EB02EF
S11301C085EA90E00E94D80240E065E083E00E9466
S11301D0390440E066E083E00E94390465E081E090
S11301E00E94EF0205E026C08FEF8093FC0004C05C
S11301F00E94C2038093FC008091FC008F3FC1F3F6
S1130200F601E10FF11D8083402F61E08091FC0035
S11302100E9462033FEF82E597E0315080409040B6
S1130220E1F700C00000402F61E08AE20E9462030F
S11302300F5F1F5F1430C0F2FE2C00E010E012C00C
S11302406F2D70E0CE0101960E949803F601E00F35
S1130250F11D90818981981302C01F5F01C015E0D0
S11302600F5FF394143060F31430B9F42FEF33EDCF
S113027080E3215030408040E1F700C000000E943C
S1130280EB0284EB90E00E94D80241E066E083E058
S11302900E94390494E09A836BC0153009F068C059
S11302A02FEF33ED80E3215030408040E1F700C070
S11302B000000E94EB0280EC90E00E94D802809142
S11302C0600081508093600060E081E00E94EF0252
S11302D08FEC90E00E94D80260916000062E000C22
S11302E0770B880B990B0E94F8029FEF23ED30E304
S11302F0915020403040E1F700C0000041E067E049
S113030083E00E9439048FEF94E32CE08150904005
S11303102040E1F700C0000040E067E083E00E9475
S1130320390480916000811122C041E065E083E0DE
S11303300E9439040E94EB028CED90E00E94D802E6
S113034040E061E088EE90E00E946D033AEA86EEB8
S113035096E921E03150804090402040D9F70000D8
S11303600E94EB0283E08093600010E001C010E083
S11303703A81353009F422CF0F900F90DF91CF915D
S11303801F910F91FF90EF90DF90CF900895CF933E
S1130390DF9300D000D0CDB7DEB70E942A040E94BC
S11303A0BD030E94C20280E00E9422050E9449000F
S11303B060E0CE0101960E94CD008FEF8093FC0097
S11303C004C00E94C2038093FC008091FC008F3F14
S11303D0C1F3833459F764E670E08FEF0E947A0327
S11303E041E066E083E00E943904E0CFCF93C82F58
S11303F040E062E083E00E94390440E063E083E08F
S11304000E943904C4FB442740F964E081E00E945F
S11304103904C5FB442740F965E081E00E943904B2
S1130420C6FB442740F966E081E00E9439044C2F62
S1130430441F4427441F67E081E00E94390441E0DF
S113044064E083E00E9439048FEC97E00197F1F7B0
S113045000C0000040E064E083E00E9439044C2FB7
S1130460417064E081E00E943904C1FB442740F9F3
S113047065E081E00E943904C2FB442740F966E04C
S113048081E00E943904C3FB442740F967E081E01E
S11304900E94390441E064E083E00E9439048FE95A
S11304A09FE00197F1F700C0000040E064E083E0C2
S11304B00E943904CF910895CF93C82F41E062E0A0
S11304C083E00E94390440E063E083E00E94390441
S11304D0C4FB442740F964E081E00E943904C5FB71
S11304E0442740F965E081E00E943904C6FB4427B3
S11304F040F966E081E00E9439044C2F441F4427F0
S1130500441F67E081E00E94390441E064E083E035
S11305100E9439048FEC97E00197F1F700C00000C6
S113052040E064E083E00E9439044C2F417064E0B1
S113053081E00E943904C1FB442740F965E081E071
S11305400E943904C2FB442740F966E081E00E941E
S11305503904C3FB442740F967E081E00E94390471
S113056041E064E083E00E9439048FE99FE0019751
S1130570F1F700C0000040E064E083E00E94390429
S1130580CF9108952FEB8AED90E021508040904068
S1130590E1F700C0000082E00E94F60188E20E94B8
S11305A0F6018DE00E94F60181E00E94F6010895B3
S11305B00F931F93CF938C01C0E003C00E945C0291
S11305C0CF5FF801EC0FF11D80818111F7CFCF913E
S11305D01F910F91089581E00E94F601089590E41F
S11305E0899F600D1124862F80680E94F60108956A
S11305F0CF92DF92EF92FF920F931F93CF93DF93EB
S1130600CDB7DEB72A970FB6F894DEBF0FBECDBFC5
S11306106B017C01672B682B692B19F480E30E9422
S11306205C02FF2054F4F094E094D094C094C11C74
S1130630D11CE11CF11C01E001C000E010E016C077
S1130640C701B6012AE030E040E050E00E9489058D
S1130650E1E0F0E0EC0FFD1FE10FF11D17FDFA954D
S11306606083C22ED32EE42EF52E1F5FC114D10455
S1130670E104F10429F7FF24FA94F10E013089F41E
S11306808DE20E945C020DC0E1E0F0E0EC0FFD1F82
S1130690EF0DF11DF7FCFA958081805D0E945C02EC
S11306A0FA94FF208CF72A960FB6F894DEBF0FBE9B
S11306B0CDBFDF91CF911F910F91FF90EF90DF900D
S11306C0CF900895CF93C82F862F642F0E94EF02F6
S11306D08C2F0E945C02CF910895CF93DF93EC019D
S11306E0862F642F0E94EF02CE010E94D802DF9170
S11306F0CF9108951F93CF93DF93C82FD62F172F31
S11307000E942F05812F80650E9449058D2F0E942C
S113071068058C2F0E9468050E9486058FE19EE47F
S11307200197F1F700C00000DF91CF911F91089568
S11307300F931F93CF93DF938C01D62FC72F0E9463
S11307402F05C0658C2F0E9449058D2F0E946805D6
S11307500E943C058C2F0E945805C8010E94760512
S11307600E9486058FE19EE40197F1F700C0000026
S1130770DF91CF911F910F9108956FEF84E00E9454
S1130780C3040895EF92FF920F931F93CF93DF93C7
S1130790CDB7DEB761970FB6F894DEBF0FBECDBFFD
S11307A080E1E1E6F0E0DE01119601900D928A9578
S11307B0E1F7F12CEE24EA943CC040E06F2D84E094
S11307C00E94390400E02DC014E0100FAE014F5E0A
S11307D05F4F612F84E00E94DC048989811120C06D
S11307E0E02FF0E0EE0FFF1FEE0FFF1F81E090E01F
S11307F08C0F9D1FE80FF91FEF0DF11DE0808FE6B0
S113080097E10197F1F700C0000007C0AE014F5E09
S11308105F4F612F84E00E94DC0489898823B1F34F
S11308200F5F043088F241E06F2D84E00E943904A8
S1130830F39493E09F1508F68E2D61960FB6F89405
S1130840DEBF0FBECDBFDF91CF911F910F91FF90FF
S1130850EF9008958EEF8ABB8FEB87BB8CEF84BB40
S11308608FE081BB1BBA18BA83E085BB80EF82BBE3
S11308700895683008F07FC041113FC08230B1F064
S113088018F4813031F079C08330E9F0843041F1DB
S113089074C02BB381E090E002C0880F991F6A9561
S11308A0E2F7809582238BBB80E0089528B381E032
S11308B090E002C0880F991F6A95E2F78095822321
S11308C088BB80E0089525B381E090E002C0880FE2
S11308D0991F6A95E2F78095822385BB80E008958D
S11308E022B381E090E002C0880F991F6A95E2F775
S11308F08095822382BB80E00895413009F03FC097
S11309008230A9F018F4813031F03BC08330D9F043
S1130910843029F136C02BB381E090E002C0880F07
S1130920991F6A95E2F7822B8BBB80E0089528B368
S113093081E090E002C0880F991F6A95E2F7822B4C
S113094088BB80E0089525B381E090E002C0880F61
S1130950991F6A95E2F7822B85BB80E0089522B344
S113096081E090E002C0880F991F6A95E2F7822B1C
S113097082BB80E0089581E0089581E0089581E0DC
S1130980089581E00895823061F018F4813031F0E7
S113099011C0833049F0843051F00CC06BBB80E04F
S11309A0089568BB80E0089565BB80E0089562BB4C
S11309B080E0089581E008956830F0F5411551050F
S11309C0E9F18230A9F018F4813031F039C0833074
S11309D0D9F0843029F134C089B390E002C09595F0
S11309E087956A95E2F78170FA01808380E0089523
S11309F086B390E002C0959587956A95E2F7817079
S1130A00FA01808380E0089583B390E002C0959555
S1130A1087956A95E2F78170FA01808380E00895F2
S1130A2080B390E002C0959587956A95E2F781704E
S1130A30FA01808380E0089581E0089581E00895BB
S1130A4081E00895882311F0880F82B981B18E7FE7
S1130A5081B981B18D7F81B982E080B9089584EA3A
S1130A6086BF06B607FEFDCF81B1887F883011F4BA
S1130A7080E0089581E0089584EA86BF06B607FE03
S1130A80FDCF81B1887F803111F480E0089582E048
S1130A900895880F83B984EC86BF06B607FEFDCFA0
S1130AA081B1887F883111F480E0089583E008954E
S1130AB0880F816083B984EC86BF06B607FEFDCF3C
S1130AC081B1887F803411F480E0089584E0089532
S1130AD083B984EC86BF06B607FEFDCF81B1887F5B
S1130AE0883211F480E0089585E00895FC0184E8DB
S1130AF086BF06B607FEFDCF91B1987F983511F4F5
S1130B0080E001C088E093B19083089584E986BFB2
S1130B100895052E97FB1EF400940E94A00557FD2E
S1130B2007D00E94A80507FC03D04EF40C94A0053E
S1130B3050954095309521953F4F4F4F5F4F089505
S1130B4090958095709561957F4F8F4F9F4F089535
S1130B50A1E21A2EAA1BBB1BFD010DC0AA1FBB1FBD
S1130B60EE1FFF1FA217B307E407F50720F0A21B2F
S1130B70B30BE40BF50B661F771F881F991F1A949C
S1130B8069F760957095809590959B01AC01BD01C6
S10B0B90CF010895F894FFCF92
S1130B98033738392F3435362A3132332D43303D33
S1130BA82B536574205061737320466F7200466935
S1130BB87273742054696D650053657420506173B1
S1130BC873776F72640050617373776F7264205324
S1130BD86176656400456E7465722050617373773D
S1130BE86F72640053616665206F70656E6564009A
S1130BF857726F6E672050617373776F7264005415
S1130C0872696573204C6566743A200053616665A1
S1130C1820436C6F73656400426C6F636B20466F8E
S10F0C2872203230205365636F6E64004C
S9030000FC
